(.venv) [bofh@hole CS216-NodeSTAR-Bitcoin-Simulator]$ python main.py --type legacy --stage AtoB
==================== Legacy Transactions ====================
INFO: Addresses
A: n3qDBhi89PeAYiYsn3wMFErkvcbGCAybXz
B: n4osoX1fx6NhHdgA6NCwBEwtihKCYfWWN1
INFO: Funding A (1.0 BTC)
-------------------- A -> B --------------------
INFO: Creating raw_tx (0.9 BTC)
INFO: Calculated fee: 2250 sat
INFO: Signing tx
INFO: Broadcasting tx
INFO: Signed tx hex:  020000000104dbfdd4ac4b7e9975dd3efd26588eb59bc7beffb64a99ad41a5b1cbdf330161000000006a47304402203546a3fe3743644d45c9c7da7384effa10ab95b22dcce74b0d2237a950b36c0c02207cc8e9c61ae379eb7a4f7b8ca739c667fca9b33e49079f9840a0e6e353430d3f01210251a77a3cf55a03716739507475726dda3da8898181066f8b773928d3fe1c4336fdffffff02804a5d05000000001976a914ff7e36f32aeae58f03bdf8da5362e96e5a7fe54688acb68d9800000000001976a914f4c6af3c507377cb1ba91e74d362143ad43352ea88ac00000000
INFO: Decoding signed tx
{
    "txid": "9c8e31f364a21abf26fda3b9549693caee221d3597ae0142a59efb0a94968e28",
    "hash": "9c8e31f364a21abf26fda3b9549693caee221d3597ae0142a59efb0a94968e28",
    "version": 2,
    "size": 225,
    "vsize": 225,
    "weight": 900,
    "locktime": 0,
    "vin": [
        {
            "txid": "610133dfcbb1a541ad994ab6ffbec79bb58e5826fd3edd75997e4bacd4fddb04",
            "vout": 0,
            "scriptSig": {
                "asm": "304402203546a3fe3743644d45c9c7da7384effa10ab95b22dcce74b0d2237a950b36c0c02207cc8e9c61ae379eb7a4f7b8ca739c667fca9b33e49079f9840a0e6e353430d3f[ALL] 0251a77a3cf55a03716739507475726dda3da8898181066f8b773928d3fe1c4336",
                "hex": "47304402203546a3fe3743644d45c9c7da7384effa10ab95b22dcce74b0d2237a950b36c0c02207cc8e9c61ae379eb7a4f7b8ca739c667fca9b33e49079f9840a0e6e353430d3f01210251a77a3cf55a03716739507475726dda3da8898181066f8b773928d3fe1c4336"
            },
            "sequence": 4294967293
        }
    ],
    "vout": [
        {
            "value": "0.90000000",
            "n": 0,
            "scriptPubKey": {
                "asm": "OP_DUP OP_HASH160 ff7e36f32aeae58f03bdf8da5362e96e5a7fe546 OP_EQUALVERIFY OP_CHECKSIG",
                "desc": "addr(n4osoX1fx6NhHdgA6NCwBEwtihKCYfWWN1)#tfta6nvl",
                "hex": "76a914ff7e36f32aeae58f03bdf8da5362e96e5a7fe54688ac",
                "address": "n4osoX1fx6NhHdgA6NCwBEwtihKCYfWWN1",
                "type": "pubkeyhash"
            }
        },
        {
            "value": "0.09997750",
            "n": 1,
            "scriptPubKey": {
                "asm": "OP_DUP OP_HASH160 f4c6af3c507377cb1ba91e74d362143ad43352ea OP_EQUALVERIFY OP_CHECKSIG",
                "desc": "addr(n3qDBhi89PeAYiYsn3wMFErkvcbGCAybXz)#7eg7jly0",
                "hex": "76a914f4c6af3c507377cb1ba91e74d362143ad43352ea88ac",
                "address": "n3qDBhi89PeAYiYsn3wMFErkvcbGCAybXz",
                "type": "pubkeyhash"
            }
        }
    ]
}
INFO: scriptPubKey:
OP_DUP OP_HASH160 ff7e36f32aeae58f03bdf8da5362e96e5a7fe546 OP_EQUALVERIFY OP_CHECKSIG
INFO: txid 9c8e31f364a21abf26fda3b9549693caee221d3597ae0142a59efb0a94968e28
